:020000040000FA
:100000000C948B000C94B3000C94B3000C94B300CC
:100010000C94B3000C94B3000C94B3000C94B30094
:100020000C94B3000C94B3000C94B3000C94B30084
:100030000C94B3000C94B3000C94B3000C94B30074
:100040000C9486070C94B3000C944E080C9428086A
:100050000C94B3000C94B3000C94B3000C94B30054
:100060000C9480080C94B3000C94B3000C94B3006F
:100070000C94F6070C94D0070C94B3000C94B300C6
:100080000C94B3000C94B3000C94B3000C94B30024
:100090000C94B3000C94B3000C94B3000C94B30014
:1000A0000C94B3000C94B3000C94B3000C94B30004
:1000B0000C94B300090C0A080002010000030407B5
:1000C0000000000000000000000000000000000030
:1000D000250028002B002E0000000000240027002F
:1000E0002A002D0004040404040404040202020291
:1000F00002020303030303030505050501020408C7
:100100001020408001020408102001020408102081
:10011000040801029F0911241FBECFEFD8E0DEBF03
:10012000CDBF11E0A0E0B1E0EEE1FCE102C005903E
:100130000D92A436B107D9F723E0A4E6B1E001C0DF
:100140001D92AF3CB207E1F710E0CBE8D0E004C06D
:100150002197FE010E94BE0DCA38D107C9F70E943F
:100160000D0A0C940D0E0C94000090E0FC01E4507C
:10017000FF4F24918C519F4FFC018491882399F06B
:1001800090E0880F991FFC01E852FF4FA591B491B0
:10019000FC01E453FF4F859194918FB7F894EC9153
:1001A000E22BEC938FBF0895282F30E0F901EC5437
:1001B000FF4F9491F901E450FF4F84912C513F4F30
:1001C000F9012491222309F42EC09923D9F09150EA
:1001D0009D30C0F4E92FF0E0E051FF4F0C94BE0DCC
:1001E00018011C01FD001401020102011F0125017B
:1001F00029012F01020133013901909180009F777D
:1002000090938000E22FF0E0EE0FFF1FE453FF4FCA
:10021000A591B4919FB7F894EC9161112EC080958F
:100220008E238C939FBF0895909180009F7DE8CF8F
:1002300094B59F7794BDE6CF94B59F7DFBCF909109
:10024000B0009F779093B000DDCF9091B0009F7D7C
:10025000F9CF909190009F7790939000D3CF909199
:1002600090009F7DF9CF9091A0009F779093A00080
:10027000C9CF9091A0009F7DF9CF8E2BD2CF3FB7F1
:10028000F8948091740290917502A0917602B091D9
:10029000770226B5A89B05C02F3F19F00196A11D36
:1002A000B11D3FBFBA2FA92F982F8827BC01CD01C0
:1002B000620F711D811D911D42E0660F771F881F1F
:1002C000991F4A95D1F708952FB7F894609170025D
:1002D0007091710280917202909173022FBF089504
:1002E0000E946401645D7E4F8F4F9F4F6093780240
:1002F0007093790280937A0290937B0261E085E0AB
:100300000C94D40080E991E00895E0910302F0910B
:100310000402309729F01092FE011092FD01099419
:100320000895CF93DF93AC01E0910102F0910202B6
:100330003097F1F0909100028091FF019817C0F082
:1003400090E0292F30E02617370754F4D901A75938
:10035000BE4F240F351FE90128812C939F5FF1CFF9
:10036000109200026093FF01CB01DF91CF910994BD
:10037000DF91CF910895AF92BF92CF92DF92EF922B
:10038000FF920F931F93CF93DF936C017B018B013F
:10039000040F151FEB015E01AE18BF08C017D1078F
:1003A00059F06991D601ED91FC910190F081E02D19
:1003B000C6010995892B79F7C501DF91CF911F916E
:1003C0000F91FF90EF90DF90CF90BF90AF90089586
:1003D000FC01538D448D252F30E0842F90E0821B4B
:1003E000930B541710F0CF96089501970895FC01D0
:1003F000918D828D981761F0A28DAE0FBF2FB11D28
:100400005D968C91928D9F5F9F73928F90E008957F
:100410008FEF9FEF0895FC01918D828D981731F039
:10042000828DE80FF11D858D90E008958FEF9FEF8D
:100430000895FC01918D228D892F90E0805C9F4F63
:10044000821B91098F73992708958CE792E00E948F
:10045000190221E0892B09F420E0822F089589E117
:1004600093E00E94190221E0892B09F420E0822FF9
:100470000895FC01A48DA80FB92FB11DA35ABF4F39
:100480002C91848D90E001968F739927848FA68993
:10049000B7892C93A089B1898C91837080648C93E7
:1004A000938D848D981306C00288F389E02D808196
:1004B0008F7D80830895EF92FF920F931F93CF93C8
:1004C000DF93EC0181E0888F9B8D8C8D98131AC08F
:1004D000E889F989808185FF15C09FB7F894EE8976
:1004E000FF896083E889F9898081837080648083D3
:1004F0009FBF81E090E0DF91CF911F910F91FF901E
:10050000EF900895F62E0B8D10E00F5F1F4F0F73C5
:100510001127E02E8C8D8E110CC00FB607FCFACF80
:10052000E889F989808185FFF5CFCE010E943902E3
:10053000F1CFEB8DEC0FFD2FF11DE35AFF4FF08251
:100540009FB7F8940B8FEA89FB8980818062CFCFB7
:10055000CF93DF93EC01888D8823B9F0AA89BB89FA
:10056000E889F9898C9185FD03C0808186FD0DC0E5
:100570000FB607FCF7CF8C9185FFF2CF808185FF06
:10058000EDCFCE010E943902E9CFDF91CF910895DE
:1005900080E090E0892B29F00E942F0281110E94B7
:1005A000000080E090E0892B29F00E942502811153
:1005B0000C94000008952091AF01260F3327331FBC
:1005C00021323105ECF42091D301FC0190E080E070
:1005D000243069F082E00895A091AF012191AC012F
:1005E00041575E4FA40FB52FB11D2C93019686176E
:1005F00098F38091AF01680F6093AF0180E0089598
:1006000081E008951092D30181E08093D50110928A
:10061000D40161E082E10E94D40061E083E10E94A4
:10062000D400E9EBF0E080818E7F808380818D7F34
:10063000808388E48093B80085E48093BC000895AB
:100640000895E09100028091FF01E81730F4F0E096
:10065000E759FE4F808190E008958FEF9FEF089556
:10066000909100028091FF012FEF3FEF981748F41F
:10067000E92FF0E0E759FE4F208130E09F5F909333
:100680000002C90108958091FF0190910002891B29
:10069000990B0895CF93DF93CB01EA01642F0E9459
:1006A000DB02CE01DF91CF910895CF93DF931F92AC
:1006B000CDB7DEB7698361E0CE0101960E94DB020F
:1006C00081E090E00F90DF91CF91089590E080E07D
:1006D00008950F931F93CF93DF93209168012F5FAD
:1006E000322F37703093680120FF2BC020E831FD96
:1006F0002064347009F02062205FFC01EC01239635
:1007000000E011E06485662329F070E0C8010E94D2
:10071000880D6F5F6187322F369F030E30E0311DE9
:100720001124311110C01682662311F061506187C7
:100730003196EC17FD0731F7DF91CF911F910F91A3
:10074000089520E0D4CF31503683EECF4F925F92A0
:100750006F927F928F92AF92BF92CF92DF92EF9281
:100760000F931F93CF93DF933C01EB010E943F0156
:10077000F30127853089621B730B6A307105B0F372
:10078000F894E881F9817BB170616BB16F7E6BB9D0
:10079000CA848F812C2D281B822F2F83BF844A80EF
:1007A0005B801D850C85DE841F5F0F5FD3949E8167
:1007B0003885A984EB844181D20120E0C32F522FD8
:1007C000322F3181442788943111380F08F43FEFDC
:1007D0008195889410FD430F4795889411FD430F30
:1007E0004795889412FD430F4795889413FD430F56
:1007F0004795889414FD430F4795889415FD430F42
:100800004795889416FD430F4795889417FD430F2D
:1008100047958894232F1111242F8C0D422F002CE3
:100820007BB900C047FF6BB930812227889400C094
:1008300000C0002C6BB93111390F00C0002C7BB9FE
:1008400000C046FF6BB908F43FEF9195889400C053
:1008500000C0002C6BB900FD230F00C0002C7BB939
:1008600000C045FF6BB92795889401FD230F00C098
:1008700000C0002C6BB92795889400C0002C7BB970
:1008800000C044FF6BB902FD230F2795889400C078
:1008900000C0002C6BB903FD230F00C0002C7BB9F6
:1008A00000C043FF6BB92795889404FD230F00C057
:1008B00000C0002C6BB92795889400C0002C7BB930
:1008C00000C042FF6BB905FD230F2795889400C037
:1008D00000C0002C6BB906FD230F00C0002C7BB9B3
:1008E00000C041FF6BB92795889407FD230F00C016
:1008F00000C0002C6BB92795889400C0002C7BB9F0
:1009000000C040FF6BB9432F0111422F9A0D00C068
:1009100000C0002C6BB900C000C0002C7BB900C027
:1009200047FF6BB932812227889400C000C0002C99
:100930006BB931113C0F00C0002C7BB900C046FFE1
:100940006BB908F43FEFEB0DF11D00C000C0002CA7
:100950006BB9D0FC230F00C0002C7BB900C045FF51
:100960006BB927958894D1FC230F00C000C0002CE0
:100970006BB92795889400C0002C7BB900C044FF58
:100980006BB9D2FC230F2795889400C000C0002CBF
:100990006BB9D3FC230F00C0002C7BB900C043FF10
:1009A0006BB927958894D4FC230F00C000C0002C9D
:1009B0006BB92795889400C0002C7BB900C042FF1A
:1009C0006BB9D5FC230F2795889400C000C0002C7C
:1009D0006BB9D6FC230F00C0002C7BB900C041FFCF
:1009E0006BB927958894D7FC230F00C000C0002C5A
:1009F0006BB92795889400C0002C7BB900C040FFDC
:100A00006BB9432FD110422FC19500C000C0002CFC
:100A10006BB9CE0D00C000C07BB900C047FF6BB9F9
:100A200031812227889400C000C0002C6BB931119D
:100A3000380F00C0002C7BB900C046FF6BB908F42A
:100A40003FEF8195889400C000C0002C6BB910FD69
:100A5000230F00C0002C7BB900C045FF6BB9279560
:100A6000889411FD230F00C000C0002C6BB927959E
:100A7000889400C0002C7BB900C044FF6BB912FD04
:100A8000230F2795889400C000C0002C6BB913FD7C
:100A9000230F00C0002C7BB900C043FF6BB9279522
:100AA000889414FD230F00C000C0002C6BB927955B
:100AB000889400C0002C7BB900C042FF6BB915FDC3
:100AC000230F2795889400C000C0002C6BB916FD39
:100AD000230F00C0002C7BB900C041FF6BB92795E4
:100AE000889417FD230F00C000C0002C6BB9279518
:100AF000889400C0002C7BB900C040FF6BB9432F25
:100B00001111422F8C0D00C000C0002C6BB9119741
:100B100009F086CE20EE31E0D2010E94C40DDC0146
:100B2000CB01F4E0B695A79597958795FA95D1F7FF
:100B300030E020E0B901EAE94E9E040C611D5E9EA2
:100B4000600D711D1124650D711D860F971FA11D6C
:100B5000B11D893E43E09407A105B10508F434C0F6
:100B6000885E9340A109B10942E0B695A795979593
:100B700087954A95D1F747E0849F080E211D949FE1
:100B8000200D311D1124290F311D6091670170E086
:100B9000860F971F820F931F409170025091710230
:100BA0006091720270917302292F3327420F531FF5
:100BB000611D711D40937002509371026093720227
:100BC000709373028093670178940E943F01F30150
:100BD000708B6787DF91CF911F910F91EF90DF901E
:100BE000CF90BF90AF908F907F906F905F904F901D
:100BF0000895549A0895EF92FF920F931F93CF9305
:100C0000DF93CDB7DEB762970FB6F894DEBF0FBEA5
:100C1000CDBF7C01DC011C968C917A8369835C8357
:100C20004B835E834D830D871E872F87813001F5AF
:100C3000CE0101960E94690383E0888B1A8A198A83
:100C4000D701ED91FC910484F585E02DBE016F5F25
:100C50007F4FC701099562960FB6F894DEBF0FBEAD
:100C6000CDBFDF91CF911F910F91FF90EF9008952D
:100C70001C861B861A86198618861F82DDCFEF9286
:100C8000FF920F931F93CF93DF93CDB7DEB7629799
:100C90000FB6F894DEBF0FBECDBF7C01DC011C9601
:100CA0008C917A8369835C834B835E834D830D874C
:100CB0001E872F878130F9F4CE0101960E946903C7
:100CC000188A1A8A198AD701ED91FC910484F58556
:100CD000E02DBE016F5F7F4FC701099562960FB689
:100CE000F894DEBF0FBECDBFDF91CF911F910F9162
:100CF000FF90EF9008951C861B861A861986188629
:100D00001F82DECF0F931F93CF93DF931092660164
:100D10001816190624F583EC93E00E943003EC01C9
:100D2000909365018093640110E000E09091FF01D1
:100D300080910002981769F083EC93E0003111056F
:100D40002CF40E9430030F5F1F4FF0CF0E9430033E
:100D5000EDCFC231D10541F481E080936601DF918E
:100D6000CF911F910F9108956397C9F7DF91CF91AC
:100D70001F910F910C94700190E080E00895FC01A8
:100D80008585968508950F931F93CF93DF9300D0A9
:100D90001F92CDB7DEB7AB0119821A821B82DC012C
:100DA000ED91FC910190F081E02D00E010E020E059
:100DB000BE016F5F7F4F09950F900F900F90DF91ED
:100DC000CF911F910F910895FC0101900020E9F748
:100DD0003197AF01481B590BBC0189E193E00C949A
:100DE000BB010F931F93CF93DF93809166018823FC
:100DF000B9F08091640190916501429789F407E30D
:100E000012E0E80109900020E9F7C853D24060E001
:100E1000C1110BC083EC93E00E9455031092660150
:100E2000DF91CF911F910F91089583E00E94D4002C
:100E30006C2F83EC93E00E945503AE01552767E3C6
:100E400072E083EC93E00E944A0389E1F801119279
:100E50008A95E9F710923602E1CF0E94F90DCF93FF
:100E6000DF9385ED8093BC0080918B0190918C0184
:100E7000A0918D01B0918E010796A11DB11D23E0B7
:100E8000B695A795979587952A95D1F72091BC009F
:100E900024FD03C01092D30136C040918B015091C4
:100EA0008C0160918D0170918E01452B462B472B53
:100EB00069F30097A105B10541F02AE22A95F1F7FF
:100EC00000C00197A109B109E1CF80918A0191E0A9
:100ED000909389018823B9F0C091B800D091BA00ED
:100EE0008091BC008A7B8093BC0060E082E10E941C
:100EF000D40060E083E10E94D4000E940203D093FA
:100F0000BA00C093B800DF91CF9108951F920F925D
:100F10000FB60F9211242F933F938F939F93AF930C
:100F2000BF938091700290917102A0917202B09172
:100F3000730230916F0223E0230F2D3758F501968D
:100F4000A11DB11D20936F028093700290937102D6
:100F5000A0937202B0937302809174029091750213
:100F6000A0917602B09177020196A11DB11D8093E8
:100F7000740290937502A0937602B0937702BF91AA
:100F8000AF919F918F913F912F910F900FBE0F9036
:100F90001F90189526E8230F0296A11DB11DD2CFF0
:100FA0001F920F920FB60F9211242F933F934F93DE
:100FB0005F936F937F938F939F93AF93BF93EF93C1
:100FC000FF938CE792E00E943902FF91EF91BF916D
:100FD000AF919F918F917F916F915F914F913F91D1
:100FE0002F910F900FBE0F901F9018951F920F9288
:100FF0000FB60F9211242F938F939F93EF93FF932C
:10100000E0918C02F0918D028081E0919202F0914A
:10101000930282FD1BC09081809195028F5F8F7338
:1010200020919602821741F0E0919502F0E0E45899
:10103000FD4F958F80939502FF91EF919F918F9136
:101040002F910F900FBE0F901F9018958081F4CFB5
:101050001F920F920FB60F9211242F933F934F932D
:101060005F936F937F938F939F93AF93BF93EF9310
:10107000FF9389E193E00E943902FF91EF91BF91C4
:10108000AF919F918F917F916F915F914F913F9120
:101090002F910F900FBE0F901F9018951F920F92D7
:1010A0000FB60F9211242F938F939F93EF93FF937B
:1010B000E0912903F0912A038081E0912F03F091C0
:1010C000300382FD1BC09081809132038F5F8F734C
:1010D00020913303821741F0E0913203F0E0E75EA4
:1010E000FC4F958F80933203FF91EF919F918F91E9
:1010F0002F910F900FBE0F901F9018958081F4CF05
:101100001F920F920FB60F9211242F933F934F937C
:101110005F936F937F938F939F93AF93BF93EF935F
:10112000FF938091B900887F803609F44AC0F0F5BA
:10113000883209F4A7C018F5803109F49BC0B8F4CF
:10114000882309F4F9C0883009F494C0FF91EF9125
:10115000BF91AF919F918F917F916F915F914F91CF
:101160003F912F910F900FBE0F901F9018958831CF
:1011700009F488C0803251F78093D20114C08034C2
:1011800009F49DC040F48033B9F38833F9F68093B5
:10119000D20185ECB0C0803509F485C0883509F4EA
:1011A00096C0883499F60E942F07D0CF883909F469
:1011B0008CC038F5883729F050F4883611F0803724
:1011C00029F683E08093D3011092D10157C088386B
:1011D00009F47BC0803919F0803809F0B7CF8091CD
:1011E000D101803208F071C0E091D10181E08E0F11
:1011F0008093D1018091BB00F0E0EF54FE4F8083DB
:101200003DC0803B39F0E0F4803A09F479C0883A77
:1012100009F09CCF84E08093D3011092B00110922A
:10122000AF01E091FB01F091FC0109958091AF01C4
:1012300081110FC081E08093AF0110928F0109C02E
:10124000803C09F4A6CF883C09F4A3CF883B09F081
:101250007DCFE091B00181E08E0F8093B001F0E08E
:10126000E157FE4F80818093BB009091B001809147
:10127000AF0129C08091F8018093BB0085EC809379
:10128000BC0064CF9091F7018091F601981758F552
:10129000E091F70181E08E0F8093F701F0E0EA52D0
:1012A000FE4F8081E9CFE091F70181E08E0F8093BE
:1012B000F7018091BB00F0E0EA52FE4F80839091ED
:1012C000F7018091F6019817C8F285E8D8CFE09130
:1012D000F70181E08E0F8093F7018091BB00F0E071
:1012E000EA52FE4F80838091D50181115CCF81E06D
:1012F0008093D40184EA8093BC001092D30126CF5E
:1013000085EC8093BC001092D3018091D101803292
:1013100030F4E091D101F0E0EF54FE4F1082609183
:10132000D10170E0E091F901F091FA0181EB91E0D7
:1013300009951092D1010ACF1092D20134CFECE777
:10134000F2E01382128288EE93E0A0E0B0E08483A2
:101350009583A683B78326E231E0318320834DEC69
:1013600050E0558744874CEC50E05787468748EC5F
:1013700050E0518B408B49EC50E0538B428B4AEC50
:1013800050E0558B448B4EEC50E0578B468B118EC2
:10139000128E138E148EE9E1F3E01382128284839D
:1013A0009583A683B7833183208325EC30E035878E
:1013B000248724EC30E03787268720EC30E0318B1F
:1013C000208B21EC30E0338B228B22EC30E0358B0C
:1013D000248B26EC30E0378B268B118E128E138EE9
:1013E000148EE6EBF3E02FEF208312821182148635
:1013F00013864FEF5FEFBA0147835087618772878B
:10140000E3ECF3E01382128284839583A683B7838F
:1014100088E391E0918380830895CF93DF9300D098
:101420001F92CDB7DEB7789484B5826084BD84B551
:10143000816084BD85B5826085BD85B5816085BDCF
:1014400080916E00816080936E0010928100809187
:10145000810082608093810080918100816080930F
:101460008100809180008160809380008091B10034
:1014700084608093B1008091B00081608093B0005F
:1014800080919100826080939100809191008160B1
:101490008093910080919000816080939000809172
:1014A000A10082608093A1008091A100816080935F
:1014B000A1008091A00081608093A00080917A00BB
:1014C000846080937A0080917A00826080937A00B1
:1014D00080917A00816080937A0080917A008068A0
:1014E00080937A001092C100E0912903F0912A03C1
:1014F00022E02083E0912503F09126031082E09101
:101500002703F091280310E1108310923103E0913A
:101510002D03F0912E0396E09083E0912B03F09140
:101520002C03808180618083E0912B03F0912C0358
:10153000808188608083E0912B03F0912C0380816F
:1015400080688083E0912B03F0912C0380818F7D54
:101550008083E0918C02F0918D022083E0918802DB
:10156000F09189021082E0918A02F0918B028FEC57
:10157000808310929402E0919002F0919102908306
:10158000E0918E02F0918F02808180618083E091F2
:101590008E02F0918F02808188608083E0918E02BC
:1015A000F0918F02808180688083E0918E02F091BB
:1015B0008F0280818F7D8083109200021092FF0144
:1015C0001092FE011092FD010E94020385E891E055
:1015D0009093FC018093FB0181E991E09093FA01E3
:1015E0008093F9011093BA0082E896E0909302028A
:1015F0008093010281EF96E09093040280930302AE
:1016000083E00E94B50085E00E94B50060E083E0C1
:101610000E94D40060E085E00E94D400809118020E
:10162000811145C010920A02109209028FEF809337
:101630000D0280930E0280930F028093100280931C
:1016400011028093120281E080931302109215021E
:101650001092140210920C0210920B02809126023A
:1016600090912702892B31F487E092E09093270232
:1016700080932602E0910502F0910602309721F056
:1016800087E092E09583848387E092E0909306025E
:1016900080930502109217021092160284E191E0E5
:1016A000909308028093070281E080931802549A75
:1016B0008CE292E090930A028093090282E090E02B
:1016C00090931502809314028091B9039091BA030C
:1016D000A091BB03B091BC03843C29E09207A10513
:1016E000B10520F484EC99E0A0E0B0E08093B90368
:1016F0009093BA03A093BB03B093BC038FEF809386
:101700002C0210922D0210922E0280932F02109222
:10171000300210923102D090B6038091B9039091BB
:10172000BA03A091BB03B091BC03892B8A2B8B2BEE
:10173000D9F00E943F0100912802109129022091C6
:101740002A0230912B02601B710B820B930B0091CC
:10175000B9031091BA032091BB033091BC03601709
:10176000710782079307C8F20E943F016093280225
:101770007093290280932A0290932B02E091C10377
:10178000F091C203309759F04091BD035091BE03D0
:101790006091BF037091C0038D2D0995D82EE09004
:1017A0002602F09027024D2C512C712C612CE11453
:1017B000F10409F45EC0D7011C96CC901C9780916F
:1017C000B7039091B8038436910510F41C961C92CF
:1017D000D701ED91FC91A280B38019821A821B82FD
:1017E000DD2089F1F701369601E010E021912223F6
:1017F00029F19280992011F130E050E040E02F5F14
:101800003F4F4F4F5F4FC301B2010E94780D9B01C4
:10181000AC01892D90E0B0E0A0E0BC01CD016F5F8C
:101820007F4F8F4F9F4F0E94780DD801119721E075
:1018300030E02C0F3D1FA20FB31F8C930F5F1F4F83
:101840000430110599F609811A812B81D7011D9663
:101850004D915C911E9712966D917C91C701F50197
:101860000995D7011C96CC921C971496ED90FC908C
:101870009ECF80912402909125028C010F5F1F4F13
:1018800010932502009324024997B4F10E94640149
:10189000C0902002D0902102E0902202F09023021A
:1018A0009B01AC012C193D094E095F0921F421E08F
:1018B00030E040E050E088EE93E0089FB001099FDF
:1018C000700D189F700D1124072E000C880B990BBA
:1018D0000E949C0D3093B8032093B7031092250209
:1018E000109224020E9464016093200270932102EE
:1018F0008093220290932302E7E3F2E089E1DF0183
:101900001D928A95E9F786E491E00E94E40684E559
:1019100091E00E94E4060E947001FF24F39489E1A3
:10192000E82E8CE792E00E941902892B09F44EC040
:101930008CE792E00E94F7018D3011F08A3071F54A
:1019400080916D0290916E021816190654F7E0917D
:101950006D02F0916E02EC5AFD4F1082E4E5F2E068
:101960008F010455124081918032D1F38930C1F347
:10197000E0916D02F0916E02ED5AFD4FCF0184555A
:101980009240801791070CF4AEC08081803219F02C
:10199000893009F05EC010823197F0CF20916D023E
:1019A00030916E02283131050CF0BBCF20916D02D1
:1019B00030916E02A9014F5F5F4F50936E024093CA
:1019C0006D022C5A3D4FF9018083ABCF80913602D6
:1019D0008823E1F00E9464010091320210913302E9
:1019E000209134023091350206171707280739076E
:1019F00068F41092360260E083E00E94D400E7E3CE
:101A0000F2E0DF012E2D1D922A95E9F74090780231
:101A10005090790260907A0270907B0241145104D8
:101A20006104710499F00E94640146165706680625
:101A3000790660F460E085E00E94D400109278029C
:101A40001092790210927A0210927B020E94C802D0
:101A500068CF0E9464014090500250905102609003
:101A60005202709053026415750586059705D8F1EA
:101A7000B8016C5A7D4F49E150E087E392E00E9443
:101A8000FE0D10924F02F092360261E083E00E9458
:101A9000D40087E591E00E94E40687E392E00E948B
:101AA000E40684E591E00E94E4060E9470010E9431
:101AB00064016053784F8F4F9F4F60933202709351
:101AC000330280933402909335020E94640168547B
:101AD000744F8F4F9F4F60935002709351028093C9
:101AE00052029093530210926E0210926D0219CF1F
:101AF000DB018F939F930E94CB0DBF91AF91A29F6B
:101B0000800D911DA39F900DB29F900D11240895FB
:101B100097FB072E16F4009407D077FD09D00E949A
:101B2000D60D07FC05D03EF4909581959F4F089502
:101B3000709561957F4F0895A1E21A2EAA1BBB1BD9
:101B4000FD010DC0AA1FBB1FEE1FFF1FA217B30789
:101B5000E407F50720F0A21BB30BE40BF50B661F9F
:101B6000771F881F991F1A9469F760957095809563
:101B700090959B01AC01BD01CF010895EE0FFF1FB1
:101B80000590F491E02D09940E94EA0DB7FF0895A5
:101B9000821B930B08950E94EA0DA59F900DB49FA0
:101BA000900DA49F800D911D11240895AA1BBB1BAD
:101BB00051E107C0AA1FBB1FA617B70710F0A61B4D
:101BC000B70B881F991F5A95A9F780959095BC016E
:101BD000CD010895A29FB001B39FC001A39F700DD6
:101BE000811D1124911DB29F700D811D1124911D25
:101BF000089581E090E0F8940C940D0EFB01DC0157
:101C00004150504048F001900D920020C9F701C0AA
:101C10001D9241505040E0F70895F894FFCF000026
:101C200000002D072D072D07C306BF06BC060000C8
:101C300000003F06FB05F905C306BF068201A603A7
:101C4000000000005B02BB01E801A8021902F701D5
:101C50000B020000000055034A0366032003430300
:101C6000300321035363616E6E65722052656164B7
:101C700079000D0A0054616720666F756E643A2022
:021C8000000062
:107E0000112484B714BE81FFF1D085E080938100F6
:107E1000589A82E08093C00088E18093C10086E098
:107E20008093C20080E18093C4008EE0C9D0259A7F
:107E300086E020E33CEF91E03093850020938400BE
:107E400096BBB09BFECF1D9AA8958150A9F7CC2474
:107E5000DD2488248394B5E0AB2EA1E19A2EF3E0D3
:107E6000BF2EA2D0813461F49FD0082FAFD002384A
:107E700011F0013811F484E001C083E08DD089C095
:107E8000823411F484E103C0853419F485E0A6D06E
:107E900080C0853579F488D0E82EFF2485D0082F5E
:107EA00010E0102F00270E291F29000F111F8ED060
:107EB00068016FC0863521F484E090D080E0DECF89
:107EC000843609F040C070D06FD0082F6DD080E0AC
:107ED000C81680E7D80618F4F601B7BEE895C0E0EA
:107EE000D1E062D089930C17E1F7F0E0CF16F0E70C
:107EF000DF0618F0F601B7BEE89568D007B600FCBB
:107F0000FDCFA601A0E0B1E02C9130E011968C915C
:107F1000119790E0982F8827822B932B1296FA01C5
:107F20000C0187BEE89511244E5F5F4FF1E0A03849
:107F3000BF0751F7F601A7BEE89507B600FCFDCFD5
:107F400097BEE89526C08437B1F42ED02DD0F82EF8
:107F50002BD03CD0F601EF2C8F010F5F1F4F849187
:107F60001BD0EA94F801C1F70894C11CD11CFA9403
:107F7000CF0CD11C0EC0853739F428D08EE10CD03F
:107F800085E90AD086E17ACF813511F488E018D0EE
:107F90001DD080E101D065CF982F8091C00085FF72
:107FA000FCCF9093C60008958091C00087FFFCCF5E
:107FB0008091C00084FD01C0A8958091C6000895FD
:107FC000E0E6F0E098E1908380830895EDDF803271
:107FD00019F088E0F5DFFFCF84E1DECF1F93182F83
:107FE000E3DF1150E9F7F2DF1F91089580E0E8DF49
:067FF000EE27FF270994B3
:027FFE00040479
:00000001FF
